{
  "contractName": "Flag",
  "abi": [
    {
      "constant": true,
      "inputs": [
        {
          "name": "",
          "type": "address"
        }
      ],
      "name": "captured",
      "outputs": [
        {
          "name": "",
          "type": "bool"
        }
      ],
      "payable": false,
      "stateMutability": "view",
      "type": "function"
    },
    {
      "inputs": [],
      "payable": false,
      "stateMutability": "nonpayable",
      "type": "constructor"
    },
    {
      "anonymous": false,
      "inputs": [
        {
          "indexed": true,
          "name": "who",
          "type": "address"
        },
        {
          "indexed": false,
          "name": "howMuch",
          "type": "uint256"
        }
      ],
      "name": "LogSneakedUpOn",
      "type": "event"
    },
    {
      "anonymous": false,
      "inputs": [
        {
          "indexed": true,
          "name": "who",
          "type": "address"
        },
        {
          "indexed": false,
          "name": "braggingRights",
          "type": "bytes32"
        }
      ],
      "name": "LogCaptured",
      "type": "event"
    },
    {
      "constant": false,
      "inputs": [],
      "name": "sneakUpOn",
      "outputs": [],
      "payable": true,
      "stateMutability": "payable",
      "type": "function"
    },
    {
      "constant": false,
      "inputs": [
        {
          "name": "braggingRights",
          "type": "bytes32"
        }
      ],
      "name": "capture",
      "outputs": [],
      "payable": false,
      "stateMutability": "nonpayable",
      "type": "function"
    }
  ],
  "bytecode": "0x6060604052341561000f57600080fd5b6102e78061001e6000396000f300606060405260043610610057576000357c0100000000000000000000000000000000000000000000000000000000900463ffffffff16806379395de41461005c5780638b44c99a146100ad578063aadc0a9d146100d4575b600080fd5b341561006757600080fd5b610093600480803573ffffffffffffffffffffffffffffffffffffffff169060200190919050506100de565b604051808215151515815260200191505060405180910390f35b34156100b857600080fd5b6100d26004808035600019169060200190919050506100fe565b005b6100dc61022b565b005b60006020528060005260406000206000915054906101000a900460ff1681565b60003073ffffffffffffffffffffffffffffffffffffffff163111151561012457600080fd5b60016000803373ffffffffffffffffffffffffffffffffffffffff1673ffffffffffffffffffffffffffffffffffffffff16815260200190815260200160002060006101000a81548160ff0219169083151502179055503373ffffffffffffffffffffffffffffffffffffffff167f0a454c9463d57c263d592ee0aba1aa41773d8d23d42753b4ae5a48801d7b825d8260405180826000191660001916815260200191505060405180910390a23373ffffffffffffffffffffffffffffffffffffffff166108fc3073ffffffffffffffffffffffffffffffffffffffff16319081150290604051600060405180830381858888f19350505050151561022857600080fd5b50565b3373ffffffffffffffffffffffffffffffffffffffff167f1f7b045cd9590afcc4b1f00997df25fcc915b7b8324e653dbd4e71474320b2a2346040518082815260200191505060405180910390a23373ffffffffffffffffffffffffffffffffffffffff166108fc349081150290604051600060405180830381858888f1935050505015156102b957600080fd5b5600a165627a7a723058204890b196f689fd2b9b4df7be23f611a1cb41e3a9c5274113106c44126d16cfde0029",
  "source": "pragma solidity 0.4.21;\n\ncontract Flag {\n    mapping (address => bool) public captured;\n\n    event LogSneakedUpOn(address indexed who, uint howMuch);\n    event LogCaptured(address indexed who, bytes32 braggingRights);\n\n    function Flag() public {\n    }\n\n    function sneakUpOn() public payable {\n        emit LogSneakedUpOn(msg.sender, msg.value);\n        msg.sender.transfer(msg.value);\n    }\n\n    function capture(bytes32 braggingRights) public {\n        require(address(this).balance > 0);\n        captured[msg.sender] = true;\n        emit LogCaptured(msg.sender, braggingRights);\n        msg.sender.transfer(address(this).balance);\n    }\n}\n",
  "sourcePath": "/home/vagrant/DAPPS/b9internal/capture_flag/contracts/Flag.sol",
  "compiler": {
    "name": "solc",
    "version": "0.4.21+commit.dfe3193c.Emscripten.clang"
  },
  "schemaVersion": "2.0.0",
  "updatedAt": "2018-06-06T10:38:38.891Z"
}