{
  "contractName": "Thief",
  "abi": [
    {
      "inputs": [],
      "payable": false,
      "stateMutability": "nonpayable",
      "type": "constructor"
    },
    {
      "payable": true,
      "stateMutability": "payable",
      "type": "fallback"
    },
    {
      "constant": false,
      "inputs": [
        {
          "name": "flag",
          "type": "address"
        },
        {
          "name": "braggingRights",
          "type": "bytes32"
        }
      ],
      "name": "steal",
      "outputs": [],
      "payable": false,
      "stateMutability": "nonpayable",
      "type": "function"
    }
  ],
  "bytecode": "0x6060604052341561000f57600080fd5b61024f8061001e6000396000f300606060405260043610610041576000357c0100000000000000000000000000000000000000000000000000000000900463ffffffff1680636982248e14610043575b005b341561004e57600080fd5b610087600480803573ffffffffffffffffffffffffffffffffffffffff1690602001909190803560001916906020019091905050610089565b005b8173ffffffffffffffffffffffffffffffffffffffff16638b44c99a826040518263ffffffff167c0100000000000000000000000000000000000000000000000000000000028152600401808260001916600019168152602001915050600060405180830381600087803b15156100ff57600080fd5b5af1151561010c57600080fd5b5050508173ffffffffffffffffffffffffffffffffffffffff166379395de4306040518263ffffffff167c0100000000000000000000000000000000000000000000000000000000028152600401808273ffffffffffffffffffffffffffffffffffffffff1673ffffffffffffffffffffffffffffffffffffffff168152602001915050602060405180830381600087803b15156101a957600080fd5b5af115156101b657600080fd5b5050506040518051905015156101c857fe5b3373ffffffffffffffffffffffffffffffffffffffff166108fc3073ffffffffffffffffffffffffffffffffffffffff16319081150290604051600060405180830381858888f19350505050151561021f57600080fd5b50505600a165627a7a723058206d363a05e7fbd0c8b17694b0268fd9ca85bd514946e6184cd4b9ba7d7a2b016f0029",
  "source": "pragma solidity 0.4.21;\n\nimport \"./Flag.sol\";\n\ncontract Thief {\n    function Thief() public {\n    }\n\n    function steal(Flag flag, bytes32 braggingRights) public {\n        flag.capture(braggingRights);\n        assert(flag.captured(this));\n        msg.sender.transfer(address(this).balance);\n    }\n\n    function() public payable {}\n}\n",
  "sourcePath": "/home/vagrant/DAPPS/b9internal/capture_flag/contracts/Thief.sol",
  "compiler": {
    "name": "solc",
    "version": "0.4.21+commit.dfe3193c.Emscripten.clang"
  },
  "schemaVersion": "2.0.0",
  "updatedAt": "2018-06-06T10:38:38.893Z"
}