{
  "contractName": "Thief",
  "abi": [
    {
      "inputs": [],
      "payable": false,
      "stateMutability": "nonpayable",
      "type": "constructor"
    },
    {
      "payable": true,
      "stateMutability": "payable",
      "type": "fallback"
    },
    {
      "constant": false,
      "inputs": [
        {
          "name": "flag",
          "type": "address"
        },
        {
          "name": "braggingRights",
          "type": "bytes32"
        }
      ],
      "name": "steal",
      "outputs": [],
      "payable": false,
      "stateMutability": "nonpayable",
      "type": "function"
    }
  ],
  "bytecode": "0x608060405234801561001057600080fd5b5061028f806100206000396000f300608060405260043610610041576000357c0100000000000000000000000000000000000000000000000000000000900463ffffffff1680636982248e14610043575b005b34801561004f57600080fd5b50610092600480360381019080803573ffffffffffffffffffffffffffffffffffffffff1690602001909291908035600019169060200190929190505050610094565b005b8173ffffffffffffffffffffffffffffffffffffffff16638b44c99a826040518263ffffffff167c0100000000000000000000000000000000000000000000000000000000028152600401808260001916600019168152602001915050600060405180830381600087803b15801561010b57600080fd5b505af115801561011f573d6000803e3d6000fd5b505050508173ffffffffffffffffffffffffffffffffffffffff166379395de4306040518263ffffffff167c0100000000000000000000000000000000000000000000000000000000028152600401808273ffffffffffffffffffffffffffffffffffffffff1673ffffffffffffffffffffffffffffffffffffffff168152602001915050602060405180830381600087803b1580156101be57600080fd5b505af11580156101d2573d6000803e3d6000fd5b505050506040513d60208110156101e857600080fd5b8101908080519060200190929190505050151561020157fe5b3373ffffffffffffffffffffffffffffffffffffffff166108fc3073ffffffffffffffffffffffffffffffffffffffff16319081150290604051600060405180830381858888f1935050505015801561025e573d6000803e3d6000fd5b5050505600a165627a7a723058200a7806d79ec7f9dfba6c413cfacfa4dd4a0f413490c446ed96a38a271bb8e7070029",
  "source": "pragma solidity 0.4.24;\n\nimport \"./Flag.sol\";\n\ncontract Thief {\n    constructor() public {\n    }\n\n    function steal(Flag flag, bytes32 braggingRights) public {\n        flag.capture(braggingRights);\n        assert(flag.captured(this));\n        msg.sender.transfer(address(this).balance);\n    }\n\n    function() public payable {}\n}\n",
  "sourcePath": "/Users/xavier/DAPPS/b9internal/capture_flag/contracts/Thief.sol",
  "compiler": {
    "name": "solc",
    "version": "0.4.24+commit.e67f0147.Emscripten.clang"
  },
  "schemaVersion": "2.0.1",
  "updatedAt": "2018-07-19T15:06:30.598Z"
}